:100000000C9446000C9465000C9465000C946500FB
:100010000C9465000C9465000C9465000C946500CC
:100020000C9465000C9465000C9465000C946500BC
:100030000C9465000C94DE000C9465000C94650033
:100040000C9465000C9465000C9465000C9465009C
:100050000C9465000C9465000C9465000C9465008C
:100060000C9465000C9465000C9465000C9465007C
:100070000C9465000C9465000C9465000C9465006C
:100080000C9465000C9465000C94650011241FBE4F
:10009000CFEFD0E4DEBFCDBF11E0A0E0B1E0E6E1FC
:1000A000FAE000E00BBF02C007900D92A433B10745
:1000B000D9F721E0A4E3B1E001C01D92A034B2075A
:1000C000E1F70E9447030C9409050C940000CF93BC
:1000D000DF9300D01F92CDB7DEB789837B836A831D
:1000E00089818A3031F48A819B81BC018DE00E9434
:1000F000670080EC90E0FC018081882F90E08072A6
:100100009927892BB1F386EC90E02981FC012083AB
:1001100080E090E00F900F900F90DF91CF910895C5
:10012000CF93DF93CDB7DEB781E080933401000039
:10013000DF91CF910895CF93DF93CDB7DEB781E8FC
:1001400090E02BE0FC01208388E890E02DE730E090
:10015000FC01318320838FE690E022E0FC012083C4
:1001600084E890E0FC011182108280910E01909150
:100170000F01A0911001B09111018093350190936E
:100180003601A0933701B09338018FE590E02FE559
:1001900030E0F90120812068FC0120830000DF911C
:1001A000CF910895CF93DF93CDB7DEB781E890E08C
:1001B000FC0110820000DF91CF9108951F920F92F1
:1001C00000905F000F92112400905B000F922F931C
:1001D0003F934F935F936F937F938F939F93AF93CF
:1001E000BF93EF93FF93CF93DF93CDB7DEB78091AB
:1001F000350190913601A0913701B09138010197F6
:10020000A109B1098093350190933601A09337017C
:10021000B09338018091350190913601A09137015A
:10022000B0913801892B8A2B8B2B91F40E9490007E
:1002300080910E0190910F01A0911001B0911101D8
:100240008093350190933601A0933701B093380124
:100250000000DF91CF91FF91EF91BF91AF919F91FE
:100260008F917F916F915F914F913F912F910F905F
:1002700000925B000F9000925F000F901F90189506
:10028000CF93DF9300D000D0CDB7DEB769837A83F8
:100290008B839C8389819A81AB81BC8180930E0181
:1002A00090930F01A0931001B093110180910E0162
:1002B00090910F01A0911001B0911101809335012F
:1002C00090933601A0933701B093380100000F904E
:1002D0000F900F900F90DF91CF9108950F931F9380
:1002E000CF93DF9300D000D0CDB7DEB769837A8398
:1002F0008B839C8380913A0190913B01A0913C01BA
:10030000B0913D019C01AD0169817A818B819C8115
:100310000E947503882309F477C020E030E0A9012A
:1003200069817A818B819C810E947503882351F4B5
:1003300081E990E021E930E0F90120812870FC0199
:10034000208309C081E990E021E930E0F9012081B2
:100350002360FC01208328E539E344E75FE36981FA
:100360007A818B819C810E947503882344F488E9FB
:1003700090E02FEF3FEFFC013183208334C020E079
:1003800034E244EF56E469817A818B819C810E943A
:100390009704181634F488E990E0FC011182108269
:1003A00022C008E910E020E030E040E053E4698139
:1003B0007A818B819C810E949C04DC01CB019C0191
:1003C000AD0160E074E284EF9AE40E947A03DC01FC
:1003D000CB01BC01CD010E94EC03DC01CB010197F4
:1003E000F8019183808384E990E0FC0111821082FE
:1003F00089819A81AB81BC8180933A0190933B01C2
:10040000A0933C01B0933D0100000F900F900F901E
:100410000F90DF91CF911F910F910895CF93DF93AC
:10042000CDB7DEB780E990E020E4FC01208381E9CC
:1004300090E02BE0FC01208360E070E0CB010E94A3
:100440006E010000DF91CF910895CF93DF93CDB778
:10045000DEB780E990E0FC01108281E990E0FC01C8
:1004600010820000DF91CF910895CF93DF9300D0E9
:100470001F92CDB7DEB780E290E0FC018081882F2B
:1004800090E0809590958770992721E0019709F079
:1004900020E0298380E290E0FC018081882F90E0B9
:1004A000809590958770992721E0029709F020E0C8
:1004B0002A8380E290E0FC018081882F90E0809583
:1004C00090958770992721E0049709F020E02B830D
:1004D00080913E0190913F018230910509F43DC029
:1004E0008330910528F4009761F0019741F154C0E1
:1004F00084309105D1F18430910540F10597E9F1FF
:100500004BC08981882339F081E090E090933F01CE
:1005100080933E013AC08A81882339F083E090E0DD
:1005200090933F0180933E0130C08B81882369F115
:1005300085E090E090933F0180933E0126C082E0E9
:1005400090E090933F0180933E0126C084E090E0CC
:1005500090933F0180933E011FC089818823B9F4A5
:1005600010923F0110923E0112C08A81882389F4C3
:1005700010923F0110923E010CC08B81882359F4E8
:1005800010923F0110923E0106C0000005C000001D
:1005900003C0000001C0000080913E0190913F0126
:1005A0008230910509F463C08330910530F40097DF
:1005B00009F45DC0019761F063C08430910509F4CE
:1005C00056C08430910538F1059709F445C058C0EC
:1005D00080913901873008F050C08091320181301C
:1005E00009F04BC0809139018F5F80933901809170
:1005F0003901882F90E0880F991F880F991F8E5E10
:100600009E4FFC0180819181A281B381BC01CD010B
:100610000E946E0132C080913901882381F180915E
:100620003201813061F58091390181508093390127
:1006300080913901882F90E0880F991F880F991FAA
:100640008E5E9E4FFC0180819181A281B381BC01AD
:10065000CD010E946E0113C080913201813019F4E6
:10066000109232010DC081E08093320109C060E038
:1006700070E0CB010E946E0103C0000001C00000C9
:1006800000000F900F900F90DF91CF910895CF93BE
:10069000DF93CDB7DEB781E290E0FC01108282E209
:1006A00090E02FEFFC01208384E290E02FEFFC012B
:1006B000208385E290E0FC01108264E670E080E037
:1006C00090E00E9440010E949B000E940E02109246
:1006D0003F0110923E010E943502000080913401DA
:1006E0008823E1F310923401F6CF0E94220408F42B
:1006F00081E008950E948E030C945D040E945604CC
:1007000058F00E944F0440F029F45F3F29F00C9408
:10071000460451110C9491040C944C040E946E04F4
:1007200068F39923B1F3552391F3951B550BBB2720
:10073000AA2762177307840738F09F5F5F4F220F65
:10074000331F441FAA1FA9F335D00E2E3AF0E0E85C
:1007500032D091505040E695001CCAF72BD0FE2FA6
:1007600029D0660F771F881FBB1F2617370748073A
:10077000AB07B0E809F0BB0B802DBF01FF279358F2
:100780005F4F3AF09E3F510578F00C9446040C946C
:1007900091045F3FE4F3983ED4F38695779567958F
:1007A000B795F7959F5FC9F7880F911D9695879527
:1007B00097F90895E1E0660F771F881FBB1F621746
:1007C00073078407BA0720F0621B730B840BBA0B04
:1007D000EE1F88F7E09508950E94F3036894B11125
:1007E0000C94910408950E94760488F09F5798F025
:1007F000B92F9927B751B0F0E1F0660F771F881F26
:10080000991F1AF0BA95C9F714C0B13091F00E943F
:100810009004B1E008950C949004672F782F8827F6
:10082000B85F39F0B93FCCF3869577956795B39566
:10083000D9F73EF490958095709561957F4F8F4FD5
:100840009F4F0895990F0008550FAA0BE0E8FEEF9F
:1008500016161706E807F907C0F012161306E40784
:10086000F50798F0621B730B840B950B39F40A267D
:1008700061F0232B242B252B21F408950A2609F45B
:10088000A140A6958FEF811D811D089597F99F675F
:1008900080E870E060E008959FEF80EC0895002408
:1008A0000A941616170618060906089500240A94D5
:1008B00012161306140605060895092E0394000C5B
:1008C00011F4882352F0BB0F40F4BF2B11F460FFEA
:1008D00004C06F5F7F4F8F4F9F4F089557FD905813
:1008E000440F551F59F05F3F71F04795880F97FBF4
:1008F000991F61F09F3F79F08795089512161306AE
:100900001406551FF2CF4695F1DF08C016161706DC
:100910001806991FF1CF8695710561050894089511
:10092000E894BB2766277727CB0197F908950E94A3
:10093000220408F48FEF08950E94AF040C945D0424
:100940000E944F0438F00E94560420F0952311F0C5
:100950000C9446040C944C0411240C9491040E94B1
:100960006E0470F3959FC1F3950F50E0551F629F81
:10097000F001729FBB27F00DB11D639FAA27F00DF8
:10098000B11DAA1F649F6627B00DA11D661F829F1F
:100990002227B00DA11D621F739FB00DA11D621F04
:1009A000839FA00D611D221F749F3327A00D611D21
:1009B000231F849F600D211D822F762F6A2F112403
:1009C0009F5750409AF0F1F088234AF0EE0FFF1F36
:1009D000BB1F661F771F881F91505040A9F79E3F8D
:1009E000510580F00C9446040C9491045F3FE4F3AD
:1009F000983ED4F3869577956795B795F795E795E3
:100A00009F5FC1F7FE2B880F911D9695879597F9EB
:060A10000895F894FFCFE9
:100A16000000000200000000670000000000010066
:100A26000000A4D082437BD492437BD4A443719D1F
:100A3600A4430000C4430000DC43A4F0F64300D006
:040A46000244010065
:00000001FF
