:100000000C9446000C9465000C9465000C946500FB
:100010000C9465000C9465000C9465000C946500CC
:100020000C9465000C9465000C9465000C946500BC
:100030000C9465000C94DE000C9465000C94650033
:100040000C9465000C9465000C9465000C9465009C
:100050000C9465000C9465000C9465000C9465008C
:100060000C9465000C9465000C9465000C9465007C
:100070000C9465000C9465000C9465000C9465006C
:100080000C9465000C9465000C94650011241FBE4F
:10009000CFEFD0E4DEBFCDBF11E0A0E0B1E0E2E7FA
:1000A000F9E000E00BBF02C007900D92AA37B1073C
:1000B000D9F721E0AAE7B1E001C01D92A938B20743
:1000C000E1F70E94F5020C94B7040C940000CF9362
:1000D000DF9300D01F92CDB7DEB789837B836A831D
:1000E00089818A3031F48A819B81BC018DE00E9434
:1000F000670080EC90E0FC018081882F90E08072A6
:100100009927892BB1F386EC90E02981FC012083AB
:1001100080E090E00F900F900F90DF91CF910895C5
:10012000CF93DF93CDB7DEB781E080937A010000F3
:10013000DF91CF910895CF93DF93CDB7DEB781E8FC
:1001400090E02BE0FC01208388E890E02DE730E090
:10015000FC01318320838FE690E022E0FC012083C4
:1001600084E890E0FC011182108280910E01909150
:100170000F01A0911001B091110180937B01909328
:100180007C01A0937D01B0937E018FE590E02FE587
:1001900030E0F90120812068FC0120830000DF911C
:1001A000CF910895CF93DF93CDB7DEB781E890E08C
:1001B000FC0110820000DF91CF9108951F920F92F1
:1001C00000905F000F92112400905B000F922F931C
:1001D0003F934F935F936F937F938F939F93AF93CF
:1001E000BF93EF93FF93CF93DF93CDB7DEB78091AB
:1001F0007B0190917C01A0917D01B0917E010197DE
:10020000A109B10980937B0190937C01A0937D01AA
:10021000B0937E0180917B0190917C01A0917D0142
:10022000B0917E01892B8A2B8B2B91F40E94900038
:1002300080910E0190910F01A0911001B0911101D8
:1002400080937B0190937C01A0937D01B0937E010C
:100250000000DF91CF91FF91EF91BF91AF919F91FE
:100260008F917F916F915F914F913F912F910F905F
:1002700000925B000F9000925F000F901F90189506
:10028000CF93DF9300D000D0CDB7DEB769837A83F8
:100290008B839C8389819A81AB81BC8180930E0181
:1002A00090930F01A0931001B093110180910E0162
:1002B00090910F01A0911001B091110180937B01E9
:1002C00090937C01A0937D01B0937E0100000F907C
:1002D0000F900F900F90DF91CF9108950F931F9380
:1002E000CF93DF9300D000D0CDB7DEB769837A8398
:1002F0008B839C838091830190918401A0918501DF
:10030000B09186019C01AD0169817A818B819C81CC
:100310000E942303882309F477C020E030E0A9017C
:1003200069817A818B819C810E942303882351F407
:1003300081E990E021E930E0F90120812870FC0199
:10034000208309C081E990E021E930E0F9012081B2
:100350002360FC01208328E539E344E75FE36981FA
:100360007A818B819C810E942303882344F488E94D
:1003700090E02FEF3FEFFC013183208334C020E079
:1003800034E244EF56E469817A818B819C810E943A
:100390004504181634F488E990E0FC0111821082BB
:1003A00022C008E910E020E030E040E053E4698139
:1003B0007A818B819C810E944A04DC01CB019C01E3
:1003C000AD0160E074E284EF9AE40E942803DC014E
:1003D000CB01BC01CD010E949A03DC01CB01019746
:1003E000F8019183808384E990E0FC0111821082FE
:1003F00089819A81AB81BC81809383019093840130
:10040000A0938501B093860100000F900F900F908C
:100410000F90DF91CF911F910F910895CF93DF93AC
:10042000CDB7DEB780E990E020E4FC01208381E9CC
:1004300090E02BE0FC01208360E070E0CB010E94A3
:100440006E010000DF91CF910895CF93DF93CDB778
:10045000DEB780E990E0FC01108281E990E0FC01C8
:1004600010820000DF91CF910895CF93DF931F9208
:10047000CDB7DEB780E290E0FC018081882F90E06C
:100480008170992721E0892B09F020E02983809150
:100490008701909188018130910521F1813091058A
:1004A00018F0029781F037C08981882339F081E004
:1004B00090E0909388018093870132C01092880168
:1004C000109287012DC08981882329F41092880118
:1004D0001092870125C082E090E09093880180937C
:1004E00087011EC0209181013091820180917801A5
:1004F00090917901821793073CF081E090E090930E
:100500008801809387010CC082E090E0909388017D
:100510008093870105C01092880110928701000026
:1005200080918701909188018130910569F0813037
:10053000910520F0029709F445C052C060E070E0D8
:10054000CB010E946E014CC080917F01909180018F
:10055000880F991F880F991F8E5E9E4FFC01808126
:100560009181A281B381BC01CD010E946E01809175
:100570007F0190918001880F991F8A5A9E4FFC013C
:100580002081318180918101909182012817390762
:100590007CF480917F019091800141974CF480918F
:1005A0007F019091800101969093800180937F015B
:1005B00080918101909182010196909382018093B4
:1005C00081010EC060E070E0CB010E946E011092CC
:1005D0008201109281011092800110927F0100002F
:1005E00000000F90DF91CF910895CF93DF93CDB7A7
:1005F000DEB781E290E0FC01108282E290E02FEF12
:10060000FC01208384E290E02FEFFC01208385E24F
:1006100090E0FC01108264E670E080E090E00E94CF
:1006200040010E949B000E940E02109288011092CD
:1006300087010E943502000080917A018823E1F34E
:1006400010927A01F6CF0E94D00308F481E0089559
:100650000E943C030C940B040E94040458F00E9476
:10066000FD0340F029F45F3F29F00C94F40351118D
:100670000C943F040C94FA030E941C0468F3992321
:10068000B1F3552391F3951B550BBB27AA2762178E
:100690007307840738F09F5F5F4F220F331F441F9B
:1006A000AA1FA9F335D00E2E3AF0E0E832D09150CF
:1006B0005040E695001CCAF72BD0FE2F29D0660FBC
:1006C000771F881FBB1F261737074807AB07B0E8FF
:1006D00009F0BB0B802DBF01FF2793585F4F3AF005
:1006E0009E3F510578F00C94F4030C943F045F3F57
:1006F000E4F3983ED4F3869577956795B795F7958B
:100700009F5FC9F7880F911D9695879597F9089572
:10071000E1E0660F771F881FBB1F6217730784070E
:10072000BA0720F0621B730B840BBA0BEE1F88F71D
:10073000E09508950E94A1036894B1110C943F04C0
:1007400008950E94240488F09F5798F0B92F9927A4
:10075000B751B0F0E1F0660F771F881F991F1AF0AC
:10076000BA95C9F714C0B13091F00E943E04B1E0CF
:1007700008950C943E04672F782F8827B85F39F0CE
:10078000B93FCCF3869577956795B395D9F73EF445
:1007900090958095709561957F4F8F4F9F4F0895ED
:1007A000990F0008550FAA0BE0E8FEEF1616170682
:1007B000E807F907C0F012161306E407F50798F0EA
:1007C000621B730B840B950B39F40A2661F0232B03
:1007D000242B252B21F408950A2609F4A140A6957F
:1007E0008FEF811D811D089597F99F6780E870E064
:1007F00060E008959FEF80EC089500240A94161697
:10080000170618060906089500240A9412161306FE
:10081000140605060895092E0394000C11F488238C
:1008200052F0BB0F40F4BF2B11F460FF04C06F5FA8
:100830007F4F8F4F9F4F089557FD9058440F551F7E
:1008400059F05F3F71F04795880F97FB991F61F052
:100850009F3F79F087950895121613061406551FC9
:10086000F2CF4695F1DF08C0161617061806991F35
:10087000F1CF86957105610508940895E894BB272A
:1008800066277727CB0197F908950E94D00308F4D3
:100890008FEF08950E945D040C940B040E94FD03E9
:1008A00038F00E94040420F0952311F00C94F40316
:1008B0000C94FA0311240C943F040E941C0470F35E
:1008C000959FC1F3950F50E0551F629FF001729FF5
:1008D000BB27F00DB11D639FAA27F00DB11DAA1F04
:1008E000649F6627B00DA11D661F829F2227B00D51
:1008F000A11D621F739FB00DA11D621F839FA00DDC
:10090000611D221F749F3327A00D611D231F849F2B
:10091000600D211D822F762F6A2F11249F57504082
:100920009AF0F1F088234AF0EE0FFF1FBB1F661FFD
:10093000771F881F91505040A9F79E3F510580F0C6
:100940000C94F4030C943F045F3FE4F3983ED4F31B
:10095000869577956795B795F795E7959F5FC1F76A
:10096000FE2B880F911D9695879597F90895F89419
:02097000FFCFB7
:10097200000000020000000067000000000001000B
:1009820000000000C443000000000000C443000057
:1009920000000000C44300000000A4D0A4430000F3
:1009A20000000000DC43000000000000C44300001F
:1009B2000000A4D0A44300000000A4F0F64300000D
:1009C20000000080A443050006000A000B000F008F
:1009D200100014001500180019001B001C001F0055
:0A09E2002000230024002500260059
:00000001FF
